{
    "_format": "hh-sol-artifact-1",
    "contractName": "FundPortal",
    "sourceName": "contracts/FundPortal.sol",
    "abi": [
        {
            "inputs": [],
            "stateMutability": "nonpayable",
            "type": "constructor"
        },
        {
            "inputs": [],
            "name": "campaignCount",
            "outputs": [
                {
                    "internalType": "uint256",
                    "name": "",
                    "type": "uint256"
                }
            ],
            "stateMutability": "view",
            "type": "function"
        },
        {
            "inputs": [
                {
                    "internalType": "uint256",
                    "name": "",
                    "type": "uint256"
                }
            ],
            "name": "campaigns",
            "outputs": [
                {
                    "internalType": "uint256",
                    "name": "fundingGoal",
                    "type": "uint256"
                },
                {
                    "internalType": "uint256",
                    "name": "deadline",
                    "type": "uint256"
                },
                {
                    "internalType": "address payable",
                    "name": "beneficiary",
                    "type": "address"
                },
                {
                    "internalType": "uint256",
                    "name": "amountRaised",
                    "type": "uint256"
                },
                {
                    "internalType": "bool",
                    "name": "completed",
                    "type": "bool"
                }
            ],
            "stateMutability": "view",
            "type": "function"
        },
        {
            "inputs": [
                {
                    "internalType": "uint256",
                    "name": "_fundingGoal",
                    "type": "uint256"
                },
                {
                    "internalType": "uint256",
                    "name": "_deadline",
                    "type": "uint256"
                },
                {
                    "internalType": "address payable",
                    "name": "_beneficiary",
                    "type": "address"
                }
            ],
            "name": "createCampaign",
            "outputs": [],
            "stateMutability": "nonpayable",
            "type": "function"
        },
        {
            "inputs": [],
            "name": "getCampaignCount",
            "outputs": [
                {
                    "internalType": "uint256",
                    "name": "",
                    "type": "uint256"
                }
            ],
            "stateMutability": "view",
            "type": "function"
        },
        {
            "inputs": [
                {
                    "internalType": "uint256",
                    "name": "_id",
                    "type": "uint256"
                }
            ],
            "name": "getCampaignInfo",
            "outputs": [
                {
                    "internalType": "uint256",
                    "name": "",
                    "type": "uint256"
                },
                {
                    "internalType": "uint256",
                    "name": "",
                    "type": "uint256"
                },
                {
                    "internalType": "address",
                    "name": "",
                    "type": "address"
                },
                {
                    "internalType": "uint256",
                    "name": "",
                    "type": "uint256"
                },
                {
                    "internalType": "bool",
                    "name": "",
                    "type": "bool"
                }
            ],
            "stateMutability": "view",
            "type": "function"
        },
        {
            "inputs": [],
            "name": "getOwner",
            "outputs": [
                {
                    "internalType": "address",
                    "name": "",
                    "type": "address"
                }
            ],
            "stateMutability": "view",
            "type": "function"
        },
        {
            "inputs": [],
            "name": "owner",
            "outputs": [
                {
                    "internalType": "address",
                    "name": "",
                    "type": "address"
                }
            ],
            "stateMutability": "view",
            "type": "function"
        }
    ],
    "bytecode": "0x6080604052600060015534801561001557600080fd5b50336000806101000a81548173ffffffffffffffffffffffffffffffffffffffff021916908373ffffffffffffffffffffffffffffffffffffffff160217905550610a2a806100656000396000f3fe608060405234801561001057600080fd5b506004361061007d5760003560e01c80637c6dd4351161005b5780637c6dd435146100f2578063893d20e81461010e5780638da5cb5b1461012c578063e38e2b821461014a5761007d565b8063141961bc146100825780636caa9218146100b65780637274e30d146100d4575b600080fd5b61009c6004803603810190610097919061064a565b61017e565b6040516100ad9594939291906106e2565b60405180910390f35b6100be6101f1565b6040516100cb9190610735565b60405180910390f35b6100dc61023c565b6040516100e99190610735565b60405180910390f35b61010c6004803603810190610107919061077c565b610242565b005b6101166103da565b60405161012391906107f0565b60405180910390f35b610134610403565b60405161014191906107f0565b60405180910390f35b610164600480360381019061015f919061064a565b610427565b60405161017595949392919061080b565b60405180910390f35b6002818154811061018e57600080fd5b90600052602060002090600502016000915090508060000154908060010154908060020160009054906101000a900473ffffffffffffffffffffffffffffffffffffffff16908060030154908060040160009054906101000a900460ff16905085565b60006102346040518060400160405280601581526020017f576520686176652025642063616d706169676e732100000000000000000000008152506001546104ae565b600154905090565b60015481565b60006040518060a001604052808581526020018481526020018373ffffffffffffffffffffffffffffffffffffffff168152602001600081526020016000151581525090506001600081548092919061029a9061088d565b91905055506002819080600181540180825580915050600190039060005260206000209060050201600090919091909150600082015181600001556020820151816001015560408201518160020160006101000a81548173ffffffffffffffffffffffffffffffffffffffff021916908373ffffffffffffffffffffffffffffffffffffffff1602179055506060820151816003015560808201518160040160006101000a81548160ff02191690831515021790555050506103916040518060400160405280601681526020017f2573207374617274656420612063616d706169676e21000000000000000000008152508361054a565b6103d46040518060400160405280601781526020017f2564206973207468652066756e64696e6720676f616c2100000000000000000081525082600001516104ae565b50505050565b60008060009054906101000a900473ffffffffffffffffffffffffffffffffffffffff16905090565b60008054906101000a900473ffffffffffffffffffffffffffffffffffffffff1681565b60008060008060008060028781548110610444576104436108d5565b5b90600052602060002090600502019050806000015481600101548260020160009054906101000a900473ffffffffffffffffffffffffffffffffffffffff1683600301548460040160009054906101000a900460ff16955095509550955095505091939590929450565b61054682826040516024016104c4929190610994565b6040516020818303038152906040527fb60e72cc000000000000000000000000000000000000000000000000000000007bffffffffffffffffffffffffffffffffffffffffffffffffffffffff19166020820180517bffffffffffffffffffffffffffffffffffffffffffffffffffffffff83818316178352505050506105e6565b5050565b6105e282826040516024016105609291906109c4565b6040516020818303038152906040527f319af333000000000000000000000000000000000000000000000000000000007bffffffffffffffffffffffffffffffffffffffffffffffffffffffff19166020820180517bffffffffffffffffffffffffffffffffffffffffffffffffffffffff83818316178352505050506105e6565b5050565b60008151905060006a636f6e736f6c652e6c6f679050602083016000808483855afa5050505050565b600080fd5b6000819050919050565b61062781610614565b811461063257600080fd5b50565b6000813590506106448161061e565b92915050565b6000602082840312156106605761065f61060f565b5b600061066e84828501610635565b91505092915050565b61068081610614565b82525050565b600073ffffffffffffffffffffffffffffffffffffffff82169050919050565b60006106b182610686565b9050919050565b6106c1816106a6565b82525050565b60008115159050919050565b6106dc816106c7565b82525050565b600060a0820190506106f76000830188610677565b6107046020830187610677565b61071160408301866106b8565b61071e6060830185610677565b61072b60808301846106d3565b9695505050505050565b600060208201905061074a6000830184610677565b92915050565b610759816106a6565b811461076457600080fd5b50565b60008135905061077681610750565b92915050565b6000806000606084860312156107955761079461060f565b5b60006107a386828701610635565b93505060206107b486828701610635565b92505060406107c586828701610767565b9150509250925092565b60006107da82610686565b9050919050565b6107ea816107cf565b82525050565b600060208201905061080560008301846107e1565b92915050565b600060a0820190506108206000830188610677565b61082d6020830187610677565b61083a60408301866107e1565b6108476060830185610677565b61085460808301846106d3565b9695505050505050565b7f4e487b7100000000000000000000000000000000000000000000000000000000600052601160045260246000fd5b600061089882610614565b91507fffffffffffffffffffffffffffffffffffffffffffffffffffffffffffffffff82036108ca576108c961085e565b5b600182019050919050565b7f4e487b7100000000000000000000000000000000000000000000000000000000600052603260045260246000fd5b600081519050919050565b600082825260208201905092915050565b60005b8381101561093e578082015181840152602081019050610923565b60008484015250505050565b6000601f19601f8301169050919050565b600061096682610904565b610970818561090f565b9350610980818560208601610920565b6109898161094a565b840191505092915050565b600060408201905081810360008301526109ae818561095b565b90506109bd6020830184610677565b9392505050565b600060408201905081810360008301526109de818561095b565b90506109ed60208301846107e1565b939250505056fea2646970667358221220f2742e06b480aaaa4d8af3d9a4b7f994bdadeb521e77388d8b5de77f2309304064736f6c63430008120033",
    "linkReferences": {},
    "deployedLinkReferences": {}
}