{
  "_format": "hh-sol-artifact-1",
  "contractName": "FundPortal",
  "sourceName": "contracts/FundPortal.sol",
  "abi": [
    {
      "inputs": [],
      "stateMutability": "nonpayable",
      "type": "constructor"
    },
    {
      "anonymous": false,
      "inputs": [
        {
          "indexed": false,
          "internalType": "uint256",
          "name": "fundingGoal",
          "type": "uint256"
        },
        {
          "indexed": false,
          "internalType": "uint256",
          "name": "deadline",
          "type": "uint256"
        },
        {
          "indexed": false,
          "internalType": "address",
          "name": "beneficiary",
          "type": "address"
        }
      ],
      "name": "CampaignCreated",
      "type": "event"
    },
    {
      "inputs": [],
      "name": "campaignCount",
      "outputs": [
        {
          "internalType": "uint256",
          "name": "",
          "type": "uint256"
        }
      ],
      "stateMutability": "view",
      "type": "function"
    },
    {
      "inputs": [
        {
          "internalType": "uint256",
          "name": "",
          "type": "uint256"
        }
      ],
      "name": "campaigns",
      "outputs": [
        {
          "internalType": "uint256",
          "name": "fundingGoal",
          "type": "uint256"
        },
        {
          "internalType": "uint256",
          "name": "deadline",
          "type": "uint256"
        },
        {
          "internalType": "address payable",
          "name": "beneficiary",
          "type": "address"
        },
        {
          "internalType": "uint256",
          "name": "amountRaised",
          "type": "uint256"
        },
        {
          "internalType": "bool",
          "name": "completed",
          "type": "bool"
        }
      ],
      "stateMutability": "view",
      "type": "function"
    },
    {
      "inputs": [
        {
          "internalType": "uint256",
          "name": "_fundingGoal",
          "type": "uint256"
        },
        {
          "internalType": "uint256",
          "name": "_deadline",
          "type": "uint256"
        },
        {
          "internalType": "address payable",
          "name": "_beneficiary",
          "type": "address"
        }
      ],
      "name": "createCampaign",
      "outputs": [],
      "stateMutability": "nonpayable",
      "type": "function"
    },
    {
      "inputs": [],
      "name": "getAllCampaigns",
      "outputs": [
        {
          "components": [
            {
              "internalType": "uint256",
              "name": "fundingGoal",
              "type": "uint256"
            },
            {
              "internalType": "uint256",
              "name": "deadline",
              "type": "uint256"
            },
            {
              "internalType": "address payable",
              "name": "beneficiary",
              "type": "address"
            },
            {
              "internalType": "uint256",
              "name": "amountRaised",
              "type": "uint256"
            },
            {
              "internalType": "bool",
              "name": "completed",
              "type": "bool"
            }
          ],
          "internalType": "struct FundPortal.Campaign[]",
          "name": "",
          "type": "tuple[]"
        }
      ],
      "stateMutability": "view",
      "type": "function"
    },
    {
      "inputs": [],
      "name": "getCampaignCount",
      "outputs": [
        {
          "internalType": "uint256",
          "name": "",
          "type": "uint256"
        }
      ],
      "stateMutability": "view",
      "type": "function"
    },
    {
      "inputs": [
        {
          "internalType": "uint256",
          "name": "_id",
          "type": "uint256"
        }
      ],
      "name": "getCampaignInfo",
      "outputs": [
        {
          "internalType": "uint256",
          "name": "",
          "type": "uint256"
        },
        {
          "internalType": "uint256",
          "name": "",
          "type": "uint256"
        },
        {
          "internalType": "address",
          "name": "",
          "type": "address"
        },
        {
          "internalType": "uint256",
          "name": "",
          "type": "uint256"
        },
        {
          "internalType": "bool",
          "name": "",
          "type": "bool"
        }
      ],
      "stateMutability": "view",
      "type": "function"
    },
    {
      "inputs": [],
      "name": "getOwner",
      "outputs": [
        {
          "internalType": "address",
          "name": "",
          "type": "address"
        }
      ],
      "stateMutability": "view",
      "type": "function"
    },
    {
      "inputs": [],
      "name": "owner",
      "outputs": [
        {
          "internalType": "address",
          "name": "",
          "type": "address"
        }
      ],
      "stateMutability": "view",
      "type": "function"
    },
    {
      "inputs": [
        {
          "internalType": "address payable",
          "name": "recipient",
          "type": "address"
        }
      ],
      "name": "sendEther",
      "outputs": [],
      "stateMutability": "payable",
      "type": "function"
    }
  ],
  "bytecode": "0x6080604052600060015534801561001557600080fd5b50336000806101000a81548173ffffffffffffffffffffffffffffffffffffffff021916908373ffffffffffffffffffffffffffffffffffffffff160217905550610f46806100656000396000f3fe6080604052600436106100865760003560e01c80637c6dd435116100595780637c6dd4351461013e57806386cdf60414610167578063893d20e8146101925780638da5cb5b146101bd578063e38e2b82146101e857610086565b8063141961bc1461008b57806348c981e2146100cc5780636caa9218146100e85780637274e30d14610113575b600080fd5b34801561009757600080fd5b506100b260048036038101906100ad91906108ab565b610229565b6040516100c3959493929190610943565b60405180910390f35b6100e660048036038101906100e191906109c2565b61029c565b005b3480156100f457600080fd5b506100fd610329565b60405161010a91906109ef565b60405180910390f35b34801561011f57600080fd5b50610128610374565b60405161013591906109ef565b60405180910390f35b34801561014a57600080fd5b5061016560048036038101906101609190610a0a565b61037a565b005b34801561017357600080fd5b5061017c61054d565b6040516101899190610ba1565b60405180910390f35b34801561019e57600080fd5b506101a761063b565b6040516101b49190610be4565b60405180910390f35b3480156101c957600080fd5b506101d2610664565b6040516101df9190610be4565b60405180910390f35b3480156101f457600080fd5b5061020f600480360381019061020a91906108ab565b610688565b604051610220959493929190610bff565b60405180910390f35b6002818154811061023957600080fd5b90600052602060002090600502016000915090508060000154908060010154908060020160009054906101000a900473ffffffffffffffffffffffffffffffffffffffff16908060030154908060040160009054906101000a900460ff16905085565b600034116102df576040517f08c379a00000000000000000000000000000000000000000000000000000000081526004016102d690610cd5565b60405180910390fd5b8073ffffffffffffffffffffffffffffffffffffffff166108fc349081150290604051600060405180830381858888f19350505050158015610325573d6000803e3d6000fd5b5050565b600061036c6040518060400160405280601581526020017f576520686176652025642063616d706169676e7321000000000000000000000081525060015461070f565b600154905090565b60015481565b60006040518060a001604052808581526020018481526020018373ffffffffffffffffffffffffffffffffffffffff16815260200160008152602001600015158152509050600160008154809291906103d290610d24565b91905055506002819080600181540180825580915050600190039060005260206000209060050201600090919091909150600082015181600001556020820151816001015560408201518160020160006101000a81548173ffffffffffffffffffffffffffffffffffffffff021916908373ffffffffffffffffffffffffffffffffffffffff1602179055506060820151816003015560808201518160040160006101000a81548160ff02191690831515021790555050506104c96040518060400160405280601681526020017f2573207374617274656420612063616d706169676e2100000000000000000000815250836107ab565b61050c6040518060400160405280601781526020017f2564206973207468652066756e64696e6720676f616c21000000000000000000815250826000015161070f565b7f9b78fde3aadcc2a74600a7bffe15da45094e99bab9f82b9eb84fb29914af758284848460405161053f93929190610dcb565b60405180910390a150505050565b60606002805480602002602001604051908101604052809291908181526020016000905b8282101561063257838290600052602060002090600502016040518060a001604052908160008201548152602001600182015481526020016002820160009054906101000a900473ffffffffffffffffffffffffffffffffffffffff1673ffffffffffffffffffffffffffffffffffffffff1673ffffffffffffffffffffffffffffffffffffffff168152602001600382015481526020016004820160009054906101000a900460ff16151515158152505081526020019060010190610571565b50505050905090565b60008060009054906101000a900473ffffffffffffffffffffffffffffffffffffffff16905090565b60008054906101000a900473ffffffffffffffffffffffffffffffffffffffff1681565b600080600080600080600287815481106106a5576106a4610e02565b5b90600052602060002090600502019050806000015481600101548260020160009054906101000a900473ffffffffffffffffffffffffffffffffffffffff1683600301548460040160009054906101000a900460ff16955095509550955095505091939590929450565b6107a78282604051602401610725929190610eb0565b6040516020818303038152906040527fb60e72cc000000000000000000000000000000000000000000000000000000007bffffffffffffffffffffffffffffffffffffffffffffffffffffffff19166020820180517bffffffffffffffffffffffffffffffffffffffffffffffffffffffff8381831617835250505050610847565b5050565b61084382826040516024016107c1929190610ee0565b6040516020818303038152906040527f319af333000000000000000000000000000000000000000000000000000000007bffffffffffffffffffffffffffffffffffffffffffffffffffffffff19166020820180517bffffffffffffffffffffffffffffffffffffffffffffffffffffffff8381831617835250505050610847565b5050565b60008151905060006a636f6e736f6c652e6c6f679050602083016000808483855afa5050505050565b600080fd5b6000819050919050565b61088881610875565b811461089357600080fd5b50565b6000813590506108a58161087f565b92915050565b6000602082840312156108c1576108c0610870565b5b60006108cf84828501610896565b91505092915050565b6108e181610875565b82525050565b600073ffffffffffffffffffffffffffffffffffffffff82169050919050565b6000610912826108e7565b9050919050565b61092281610907565b82525050565b60008115159050919050565b61093d81610928565b82525050565b600060a08201905061095860008301886108d8565b61096560208301876108d8565b6109726040830186610919565b61097f60608301856108d8565b61098c6080830184610934565b9695505050505050565b61099f81610907565b81146109aa57600080fd5b50565b6000813590506109bc81610996565b92915050565b6000602082840312156109d8576109d7610870565b5b60006109e6848285016109ad565b91505092915050565b6000602082019050610a0460008301846108d8565b92915050565b600080600060608486031215610a2357610a22610870565b5b6000610a3186828701610896565b9350506020610a4286828701610896565b9250506040610a53868287016109ad565b9150509250925092565b600081519050919050565b600082825260208201905092915050565b6000819050602082019050919050565b610a9281610875565b82525050565b610aa181610907565b82525050565b610ab081610928565b82525050565b60a082016000820151610acc6000850182610a89565b506020820151610adf6020850182610a89565b506040820151610af26040850182610a98565b506060820151610b056060850182610a89565b506080820151610b186080850182610aa7565b50505050565b6000610b2a8383610ab6565b60a08301905092915050565b6000602082019050919050565b6000610b4e82610a5d565b610b588185610a68565b9350610b6383610a79565b8060005b83811015610b94578151610b7b8882610b1e565b9750610b8683610b36565b925050600181019050610b67565b5085935050505092915050565b60006020820190508181036000830152610bbb8184610b43565b905092915050565b6000610bce826108e7565b9050919050565b610bde81610bc3565b82525050565b6000602082019050610bf96000830184610bd5565b92915050565b600060a082019050610c1460008301886108d8565b610c2160208301876108d8565b610c2e6040830186610bd5565b610c3b60608301856108d8565b610c486080830184610934565b9695505050505050565b600082825260208201905092915050565b7f416d6f756e74206d7573742062652067726561746572207468616e207a65726f60008201527f2e00000000000000000000000000000000000000000000000000000000000000602082015250565b6000610cbf602183610c52565b9150610cca82610c63565b604082019050919050565b60006020820190508181036000830152610cee81610cb2565b9050919050565b7f4e487b7100000000000000000000000000000000000000000000000000000000600052601160045260246000fd5b6000610d2f82610875565b91507fffffffffffffffffffffffffffffffffffffffffffffffffffffffffffffffff8203610d6157610d60610cf5565b5b600182019050919050565b6000819050919050565b6000610d91610d8c610d87846108e7565b610d6c565b6108e7565b9050919050565b6000610da382610d76565b9050919050565b6000610db582610d98565b9050919050565b610dc581610daa565b82525050565b6000606082019050610de060008301866108d8565b610ded60208301856108d8565b610dfa6040830184610dbc565b949350505050565b7f4e487b7100000000000000000000000000000000000000000000000000000000600052603260045260246000fd5b600081519050919050565b60005b83811015610e5a578082015181840152602081019050610e3f565b60008484015250505050565b6000601f19601f8301169050919050565b6000610e8282610e31565b610e8c8185610c52565b9350610e9c818560208601610e3c565b610ea581610e66565b840191505092915050565b60006040820190508181036000830152610eca8185610e77565b9050610ed960208301846108d8565b9392505050565b60006040820190508181036000830152610efa8185610e77565b9050610f096020830184610bd5565b939250505056fea2646970667358221220d86fe6b63430dceafffa9ed234b1cdef5687802191591a85a7c41ed0d1bf186664736f6c63430008120033",
  "linkReferences": {},
  "deployedLinkReferences": {}
}