{
  "_format": "hh-sol-artifact-1",
  "contractName": "FundPortal",
  "sourceName": "contracts/FundPortal.sol",
  "abi": [
    {
      "inputs": [],
      "stateMutability": "nonpayable",
      "type": "constructor"
    },
    {
      "anonymous": false,
      "inputs": [
        {
          "indexed": false,
          "internalType": "uint256",
          "name": "fundingGoal",
          "type": "uint256"
        },
        {
          "indexed": false,
          "internalType": "uint256",
          "name": "deadline",
          "type": "uint256"
        },
        {
          "indexed": false,
          "internalType": "address",
          "name": "beneficiary",
          "type": "address"
        }
      ],
      "name": "CampaignCreated",
      "type": "event"
    },
    {
      "inputs": [],
      "name": "campaignCount",
      "outputs": [
        {
          "internalType": "uint256",
          "name": "",
          "type": "uint256"
        }
      ],
      "stateMutability": "view",
      "type": "function"
    },
    {
      "inputs": [
        {
          "internalType": "uint256",
          "name": "",
          "type": "uint256"
        }
      ],
      "name": "campaigns",
      "outputs": [
        {
          "internalType": "uint256",
          "name": "fundingGoal",
          "type": "uint256"
        },
        {
          "internalType": "uint256",
          "name": "deadline",
          "type": "uint256"
        },
        {
          "internalType": "address payable",
          "name": "beneficiary",
          "type": "address"
        },
        {
          "internalType": "uint256",
          "name": "amountRaised",
          "type": "uint256"
        },
        {
          "internalType": "bool",
          "name": "completed",
          "type": "bool"
        }
      ],
      "stateMutability": "view",
      "type": "function"
    },
    {
      "inputs": [
        {
          "internalType": "uint256",
          "name": "_fundingGoal",
          "type": "uint256"
        },
        {
          "internalType": "uint256",
          "name": "_deadline",
          "type": "uint256"
        },
        {
          "internalType": "address payable",
          "name": "_beneficiary",
          "type": "address"
        }
      ],
      "name": "createCampaign",
      "outputs": [],
      "stateMutability": "nonpayable",
      "type": "function"
    },
    {
      "inputs": [],
      "name": "getAllCampaigns",
      "outputs": [
        {
          "components": [
            {
              "internalType": "uint256",
              "name": "fundingGoal",
              "type": "uint256"
            },
            {
              "internalType": "uint256",
              "name": "deadline",
              "type": "uint256"
            },
            {
              "internalType": "address payable",
              "name": "beneficiary",
              "type": "address"
            },
            {
              "internalType": "uint256",
              "name": "amountRaised",
              "type": "uint256"
            },
            {
              "internalType": "bool",
              "name": "completed",
              "type": "bool"
            }
          ],
          "internalType": "struct FundPortal.Campaign[]",
          "name": "",
          "type": "tuple[]"
        }
      ],
      "stateMutability": "view",
      "type": "function"
    },
    {
      "inputs": [],
      "name": "getCampaignCount",
      "outputs": [
        {
          "internalType": "uint256",
          "name": "",
          "type": "uint256"
        }
      ],
      "stateMutability": "view",
      "type": "function"
    },
    {
      "inputs": [
        {
          "internalType": "uint256",
          "name": "_id",
          "type": "uint256"
        }
      ],
      "name": "getCampaignInfo",
      "outputs": [
        {
          "internalType": "uint256",
          "name": "",
          "type": "uint256"
        },
        {
          "internalType": "uint256",
          "name": "",
          "type": "uint256"
        },
        {
          "internalType": "address",
          "name": "",
          "type": "address"
        },
        {
          "internalType": "uint256",
          "name": "",
          "type": "uint256"
        },
        {
          "internalType": "bool",
          "name": "",
          "type": "bool"
        }
      ],
      "stateMutability": "view",
      "type": "function"
    },
    {
      "inputs": [],
      "name": "getOwner",
      "outputs": [
        {
          "internalType": "address",
          "name": "",
          "type": "address"
        }
      ],
      "stateMutability": "view",
      "type": "function"
    },
    {
      "inputs": [],
      "name": "owner",
      "outputs": [
        {
          "internalType": "address",
          "name": "",
          "type": "address"
        }
      ],
      "stateMutability": "view",
      "type": "function"
    }
  ],
  "bytecode": "0x6080604052600060015534801561001557600080fd5b50336000806101000a81548173ffffffffffffffffffffffffffffffffffffffff021916908373ffffffffffffffffffffffffffffffffffffffff160217905550610d78806100656000396000f3fe608060405234801561001057600080fd5b50600436106100885760003560e01c806386cdf6041161005b57806386cdf60414610119578063893d20e8146101375780638da5cb5b14610155578063e38e2b821461017357610088565b8063141961bc1461008d5780636caa9218146100c15780637274e30d146100df5780637c6dd435146100fd575b600080fd5b6100a760048036038101906100a2919061079c565b6101a7565b6040516100b8959493929190610834565b60405180910390f35b6100c961021a565b6040516100d69190610887565b60405180910390f35b6100e7610265565b6040516100f49190610887565b60405180910390f35b610117600480360381019061011291906108ce565b61026b565b005b61012161043e565b60405161012e9190610a65565b60405180910390f35b61013f61052c565b60405161014c9190610aa8565b60405180910390f35b61015d610555565b60405161016a9190610aa8565b60405180910390f35b61018d6004803603810190610188919061079c565b610579565b60405161019e959493929190610ac3565b60405180910390f35b600281815481106101b757600080fd5b90600052602060002090600502016000915090508060000154908060010154908060020160009054906101000a900473ffffffffffffffffffffffffffffffffffffffff16908060030154908060040160009054906101000a900460ff16905085565b600061025d6040518060400160405280601581526020017f576520686176652025642063616d706169676e73210000000000000000000000815250600154610600565b600154905090565b60015481565b60006040518060a001604052808581526020018481526020018373ffffffffffffffffffffffffffffffffffffffff16815260200160008152602001600015158152509050600160008154809291906102c390610b45565b91905055506002819080600181540180825580915050600190039060005260206000209060050201600090919091909150600082015181600001556020820151816001015560408201518160020160006101000a81548173ffffffffffffffffffffffffffffffffffffffff021916908373ffffffffffffffffffffffffffffffffffffffff1602179055506060820151816003015560808201518160040160006101000a81548160ff02191690831515021790555050506103ba6040518060400160405280601681526020017f2573207374617274656420612063616d706169676e21000000000000000000008152508361069c565b6103fd6040518060400160405280601781526020017f2564206973207468652066756e64696e6720676f616c210000000000000000008152508260000151610600565b7f9b78fde3aadcc2a74600a7bffe15da45094e99bab9f82b9eb84fb29914af758284848460405161043093929190610bec565b60405180910390a150505050565b60606002805480602002602001604051908101604052809291908181526020016000905b8282101561052357838290600052602060002090600502016040518060a001604052908160008201548152602001600182015481526020016002820160009054906101000a900473ffffffffffffffffffffffffffffffffffffffff1673ffffffffffffffffffffffffffffffffffffffff1673ffffffffffffffffffffffffffffffffffffffff168152602001600382015481526020016004820160009054906101000a900460ff16151515158152505081526020019060010190610462565b50505050905090565b60008060009054906101000a900473ffffffffffffffffffffffffffffffffffffffff16905090565b60008054906101000a900473ffffffffffffffffffffffffffffffffffffffff1681565b6000806000806000806002878154811061059657610595610c23565b5b90600052602060002090600502019050806000015481600101548260020160009054906101000a900473ffffffffffffffffffffffffffffffffffffffff1683600301548460040160009054906101000a900460ff16955095509550955095505091939590929450565b6106988282604051602401610616929190610ce2565b6040516020818303038152906040527fb60e72cc000000000000000000000000000000000000000000000000000000007bffffffffffffffffffffffffffffffffffffffffffffffffffffffff19166020820180517bffffffffffffffffffffffffffffffffffffffffffffffffffffffff8381831617835250505050610738565b5050565b61073482826040516024016106b2929190610d12565b6040516020818303038152906040527f319af333000000000000000000000000000000000000000000000000000000007bffffffffffffffffffffffffffffffffffffffffffffffffffffffff19166020820180517bffffffffffffffffffffffffffffffffffffffffffffffffffffffff8381831617835250505050610738565b5050565b60008151905060006a636f6e736f6c652e6c6f679050602083016000808483855afa5050505050565b600080fd5b6000819050919050565b61077981610766565b811461078457600080fd5b50565b60008135905061079681610770565b92915050565b6000602082840312156107b2576107b1610761565b5b60006107c084828501610787565b91505092915050565b6107d281610766565b82525050565b600073ffffffffffffffffffffffffffffffffffffffff82169050919050565b6000610803826107d8565b9050919050565b610813816107f8565b82525050565b60008115159050919050565b61082e81610819565b82525050565b600060a08201905061084960008301886107c9565b61085660208301876107c9565b610863604083018661080a565b61087060608301856107c9565b61087d6080830184610825565b9695505050505050565b600060208201905061089c60008301846107c9565b92915050565b6108ab816107f8565b81146108b657600080fd5b50565b6000813590506108c8816108a2565b92915050565b6000806000606084860312156108e7576108e6610761565b5b60006108f586828701610787565b935050602061090686828701610787565b9250506040610917868287016108b9565b9150509250925092565b600081519050919050565b600082825260208201905092915050565b6000819050602082019050919050565b61095681610766565b82525050565b610965816107f8565b82525050565b61097481610819565b82525050565b60a082016000820151610990600085018261094d565b5060208201516109a3602085018261094d565b5060408201516109b6604085018261095c565b5060608201516109c9606085018261094d565b5060808201516109dc608085018261096b565b50505050565b60006109ee838361097a565b60a08301905092915050565b6000602082019050919050565b6000610a1282610921565b610a1c818561092c565b9350610a278361093d565b8060005b83811015610a58578151610a3f88826109e2565b9750610a4a836109fa565b925050600181019050610a2b565b5085935050505092915050565b60006020820190508181036000830152610a7f8184610a07565b905092915050565b6000610a92826107d8565b9050919050565b610aa281610a87565b82525050565b6000602082019050610abd6000830184610a99565b92915050565b600060a082019050610ad860008301886107c9565b610ae560208301876107c9565b610af26040830186610a99565b610aff60608301856107c9565b610b0c6080830184610825565b9695505050505050565b7f4e487b7100000000000000000000000000000000000000000000000000000000600052601160045260246000fd5b6000610b5082610766565b91507fffffffffffffffffffffffffffffffffffffffffffffffffffffffffffffffff8203610b8257610b81610b16565b5b600182019050919050565b6000819050919050565b6000610bb2610bad610ba8846107d8565b610b8d565b6107d8565b9050919050565b6000610bc482610b97565b9050919050565b6000610bd682610bb9565b9050919050565b610be681610bcb565b82525050565b6000606082019050610c0160008301866107c9565b610c0e60208301856107c9565b610c1b6040830184610bdd565b949350505050565b7f4e487b7100000000000000000000000000000000000000000000000000000000600052603260045260246000fd5b600081519050919050565b600082825260208201905092915050565b60005b83811015610c8c578082015181840152602081019050610c71565b60008484015250505050565b6000601f19601f8301169050919050565b6000610cb482610c52565b610cbe8185610c5d565b9350610cce818560208601610c6e565b610cd781610c98565b840191505092915050565b60006040820190508181036000830152610cfc8185610ca9565b9050610d0b60208301846107c9565b9392505050565b60006040820190508181036000830152610d2c8185610ca9565b9050610d3b6020830184610a99565b939250505056fea2646970667358221220f92cbbd31548dbe14123a3e1816b14be888de82a5e58ade8f58f32accb28669e64736f6c63430008120033",
  "linkReferences": {},
  "deployedLinkReferences": {}
}